:060000000A128A110E2A0B
:10000800F000030EF1000B1836220B193E22710E78
:080018008300F00E700E0900D8
:100400008A018A140F3982073F3406345B344F3433
:1004100066346D347D3407347F3467340630F80039
:100420000A30F6003230F3005A224A225122782252
:1004300085228B220313831291222F221C2AF70A72
:10044000F80B08008501F7010630F8000800F60BEC
:1004500008001F228701F5010A30F6000800750820
:10046000002287007708002285000800031383120A
:10047000061C880A861F88030B10080003138312CA
:10048000B23081000B11F30B08003230F300F50A93
:1004900027220800031383160F140F178F160F124D
:1004A0000800031383161614961703138312060805
:1004B0000B100800031783168801890103138316A4
:1004C0008801031383120313831687010313831216
:1004D00003138316850103138312850187018801A5
:1004E0000614861703138316811315149517080035
:1004F0000313831681128111011581140114031352
:100500008312B23081000B110800031383128B1782
:100510008B150B100800031383128B178B160B110E
:100520000800081A8801881B96220800880108081C
:060530000F3E88000800E8
:04400E00C430FF3F7C
:00000001FF
